:020000040000FA
:04000000F9EF02F022
:020004000000FA
:0A0006000F01000E8C6FCD0E876F06
:100010000B6F000E0A6F000E8C6F000E8D6F886FD5
:10002000136F126FFF0E8D6F000E8E6FFF0E896FB4
:100030001B6F000E1A6F000E0C6F146F1C6F000EFA
:100040005B6F000E096F116F196F1200FF0E8D6F3D
:100050008E6F0000000000000000000000000000A3
:10006000000000000000000000008D2FF2D78E2F4E
:10007000F0D712008CA607D0828A8CACFED7829A69
:100080008CBCFED712008CACFED7828A8CBCFED70B
:10009000829A00001200000E8A6357EF00F08881F8
:1000A0008CB1889188838BBF889357EF00F0010E45
:1000B0008A6363EF00F088858CB1889588878BBF51
:1000C000889763EF00F0020E8A636FEF00F0888973
:1000D0008CB18899888B8BBF889B6FEF00F0030EE3
:1000E0008A637BEF00F0888D8CB1889D888F8BBFF1
:1000F000889F7BEF00F01200000100EE9EF010EEF2
:10010000A6F020EEB1F0040EAEB1E926AEB1E126C4
:10011000906B916BD9CF92F0DACF93F0000E8511EE
:100120008611E8669CEF00F096EF00F082C0DEFFDB
:1001300083C0DEFFA6EF00F000000000EF50DE26D7
:10014000E86ADE2200000000A6EF00F092C0D9FFAE
:1001500093C0DAFF8051DE5CD8A0B5EF00F0B1EFBC
:1001600000F08151DE5CBBEF00F0000000000000F9
:100170000000BBEF00F092C0D9FF93C0DAFFD8B007
:10018000C4EF00F0D4EF00F090C08AF0E7CF8BF01E
:10019000010E8C6F4BEC00F02C0EDE5E010ED8A031
:1001A000010FDE5EE2EF00F090C08AF0E7CF8BF047
:1001B000000E8C6F4BEC00F000000000000000000F
:1001C000E2EF00F092C0D9FF93C0DAFFE92AE12AFA
:1001D000D92AD92A902B905184638AEF00F0854B5D
:1001E000862B8551805D86518159D8B015EF01F07D
:1001F000FAEF00F0B0B1FFEF00F009EF01F00000FE
:100200000000856B866B010EAE1BAF1BB06B828846
:100210001200856B866B00000000000000000000EB
:1002200000000000000082881200000000000000B2
:1002300000000000000000000000000000000000BE
:1002400000000000000000008298120000EE9EF006
:1002500010EEA6F0040EAFB1E926AFB1E126996B1E
:1002600087B199699A6B8751050B050AD8B49A69C9
:100270009AB13DEF01F044EF01F0000000008282EE
:10028000020E946F49EF01F000000000000049EFFA
:1002900001F09451E844E844956F020EFA6EA80EFE
:1002A0009525D8B0FA2AF96E84EF01F095EF01F0A8
:1002B000A6EF01F0B7EF01F0C8EF01F0D9EF01F0C0
:1002C000EAEF01F0FBEF01F005EF02F016EF02F0AC
:1002D00027EF02F038EF02F049EF02F053EF02F09F
:1002E00064EF02F075EF02F086EF02F097EF02F094
:1002F000A1EF02F0B2EF02F0C3EF02F0D4EF02F090
:10030000E5EF02F0EFEF02F099B18EEF01F089EF27
:1003100001F00000829200000000120000000000C6
:100320008951976F0000942B120099A19FEF01F063
:100330009AEF01F00000828200000000120000002D
:100340000000000082920000946B12009AB1B0EF9E
:1003500001F0ABEF01F0000082920000942B12003C
:10036000000000000000828200000000120099B12D
:10037000C1EF01F0BCEF01F000008292000000002C
:100380001200000089C097F082820000942B1200B6
:1003900099B1D2EF01F0CDEF01F0000082920000A0
:1003A000942B120000000000000082820000000078
:1003B000120099B1E3EF01F0DEEF01F0000082924C
:1003C000000000001200000089C098F08282000046
:1003D000942B120099B1F4EF01F0EFEF01F000005F
:1003E00082920000942B1200000000000000828224
:1003F0000000000012000000000EE92697C0EFFF89
:10040000E12698C0E7FF942B120099B10FEF02F09C
:100410000AEF02F0000082920000000012000000CB
:1004200089C097F082820000942B120099B120EFCE
:1004300002F01BEF02F0000082920000942B1200E9
:10044000000000000000828200000000120099B14C
:1004500031EF02F02CEF02F0000082920000000069
:100460001200000089C098F082820000942B1200D4
:1004700099B142EF02F03DEF02F0000082920000DD
:10048000942B120000000000000082820000000097
:1004900012000000010EE92697C0EFFFE12698C088
:1004A000E7FF942B120099B15DEF02F058EF02F0D4
:1004B00000008292000000001200000089C097F046
:1004C00082820000942B120099B16EEF02F069EF66
:1004D00002F0000082920000942B12000000000045
:1004E0000000828200000000120099B17FEF02F04C
:1004F0007AEF02F00000829200000000120000007B
:1005000089C098F082820000942B120099B190EF7C
:1005100002F08BEF02F0000082920000942B120098
:1005200000000000000082820000000012000000B5
:10053000020EE92697C0EFFFE12698C0E7FF942B53
:10054000120099B1ABEF02F0A6EF02F00000829228
:10055000000000001200000089C097F082820000B5
:10056000942B120099B1BCEF02F0B7EF02F000003B
:1005700082920000942B1200000000000000828292
:1005800000000000120099B1CDEF02F0C8EF02F0B8
:1005900000008292000000001200000089C098F064
:1005A00082820000942B120099B1DEEF02F0D9EFA5
:1005B00002F0000082920000942B12000000000064
:1005C000000082820000000012000000030EE926F5
:1005D00097C0EFFFE12698C0E7FF942B12000000C0
:1005E0000000000000000000B069000E946F0000E1
:1005F000120003EC00F00001886B2C0E806F010EDE
:10060000816F960E826F000E836F040E846F856B70
:10061000866B000EAE6F010EAF6FB06B00EE9EF0FA
:1006200010EEA6F020EEB1F0000EEE6AEE6AE66A79
:10063000E66A82C0DEFF83C0DEFFE82A846315EF2E
:1006400003F08F6B000E8A6F8B6F8C6F26EC00F0BF
:100650003AEC00F004008CCF87F08ECF89F026ECC6
:1006600001F0835055098D6E7CEC00F088C08DFF41
:040670002AEF03F07A
:020000040030CA
:01000000AF50
:01000100FFFF
:01000200FFFE
:01000300FFFD
:010004009F5C
:01000500FFFB
:01000600FFFA
:01000700FFF9
:01000800FFF8
:01000A00FFF6
:01000B00FFF5
:00000001FF
